{
  "contractName": "checking",
  "abi": [
    {
      "constant": true,
      "inputs": [],
      "name": "taskCount",
      "outputs": [
        {
          "name": "",
          "type": "uint256"
        }
      ],
      "payable": false,
      "stateMutability": "view",
      "type": "function",
      "signature": "0xb6cb58a5"
    }
  ],
  "bytecode": "0x608060405260008055348015601357600080fd5b50609e806100226000396000f3fe608060405260043610603f576000357c0100000000000000000000000000000000000000000000000000000000900463ffffffff168063b6cb58a5146044575b600080fd5b348015604f57600080fd5b506056606c565b6040518082815260200191505060405180910390f35b6000548156fea165627a7a72305820ef1984b4b7e56cba409064d8a36e6d0b39f461bdbb5273e1cef80939b9446ea20029",
  "source": "// SPDX-License-Identifier: unlisenced\r\npragma solidity >=0.4.22 <0.9.0;\r\n\r\ncontract checking{\r\nuint public taskCount = 0;\r\n} ",
  "sourcePath": "D:/Downloads/block chain project Install software/new-project/contracts/checking.sol",
  "compiler": {
    "name": "solc",
    "version": "0.5.0+commit.1d4f565a.Emscripten.clang"
  },
  "schemaVersion": "3.0.1",
  "updatedAt": "2020-12-20T15:01:59.519Z",
  "devdoc": {
    "methods": {}
  },
  "userdoc": {
    "methods": {}
  }
}